:0300000002041ED9
:0C041E00787FE4F6D8FD7581140200031D
:10035A0046696E6765727072696E7420546573744B
:10036A000053756363656564004653204572726F76
:02037A0072000F
:1002F400750A00750B0212015EEF60012212023CC6
:10030400EF6001227F011201CEEF60012212023C54
:10031400EF6001227F021201CEEF600122120298E7
:0D032400EF600122AD0BAC0A7F021200D386
:0103310022A9
:100003001203C67BFF7A03795AE4FDFF120332120F
:10001300037C7FC87E001203AE1202F48F147F01AB
:100023001203FEE5142410B40700505B90003D75E5
:10003300F003A4C58325F0C5837302005202005A5E
:1000430002006202006A02007202007A02008275F4
:10005300083275093680417508327509378039755C
:100063000832750938803175083275093980297568
:100073000833750930802175083375093180197586
:1000830008337509328011E51475F00A84F508E523
:100093001475F00A8485F00974302508F508743066
:1000A3002509F509E514700D7BFF7A03796BFDFFD4
:1000B30012033280EF7BFF7A037973E4FDFF1203AF
:1000C300327B007A0079087D01E4FF12033280D489
:10037C0075985075878053890F438920758DFA8540
:09038C008D8BC2ABD2ACD28E22E3
:080434008F993099FDC2992255
:07043C003098FDC298AF9952
:010443002296
:10015E00750CFF7FEF1204347F011204347FFF12FF
:10016E0004347FFF1204347FFF1204347FFF120425
:10017E00347F01120434E4FF1204347F0712043476
:10018E007F13120434E4FF120434E4FF120434E447
:10019E00FF120434E4FF120434E4FF1204347F1B14
:1001AE00120434E4FF3098FDC2980FBF09F7120411
:0F01BE003C8F0C3098FDC2983098FDC298AF0C62
:0101CD00220F
:10023C00750CFF7FEF1204347F011204347FFF1220
:10024C0004347FFF1204347FFF1204347FFF120446
:10025C00347F01120434E4FF1204347F031204349B
:10026C007F01120434E4FF1204347F05120434E4D9
:10027C00FF3098FDC2980FBF09F712043C8F0C3069
:0B028C0098FDC2983098FDC298AF0C9E
:010297002244
:0201CE008F0C94
:1001D000750DFF7FEF1204347F011204347FFF128C
:1001E00004347FFF1204347FFF1204347FFF1204B3
:1001F000347F01120434E4FF1204347F0412043407
:100200007F02120434AF0C120434E50C2407FFE41F
:1002100033FE8F0EF50FFF120434AF0E120434E4D8
:10022000FF3098FDC2980FBF09F712043C8F0D30C4
:0B02300098FDC2983098FDC298AF0DF9
:01023B0022A0
:10029800750CFF7FEF1204347F011204347FFF12C4
:1002A80004347FFF1204347FFF1204347FFF1204EA
:1002B800347F01120434E4FF1204347F031204343F
:1002C8007F05120434E4FF1204347F09120434E475
:1002D800FF3098FDC2980FBF09F712043C8F0C300D
:0B02E80098FDC2983098FDC298AF0C42
:0102F30022E8
:0600D3008F0C8C0D8D0E58
:1000D900750FFF7FEF1204347F011204347FFF1282
:1000E90004347FFF1204347FFF1204347FFF1204AB
:1000F900347F01120434E4FF1204347F06120434FD
:100109007F06120434AF0C120434850E10E50DF588
:1001190011AF11120434AF10120434E50C240DFF91
:10012900E433FEE50E2FFFE50D3EFE8F12F513FFBA
:10013900120434AF12120434E4FF3098FDC2980F50
:10014900BF09F712043C8F0F3098FDC2983098FD13
:04015900C298AF0F8A
:01015D00227F
:1003DA007580FFC2A6D2A5D2A7AF80C2A7EF20E739
:0103EA00F61C
:0103EB0022EF
:1003FE00AE071203DAC2A6C2A58E80D2A7C2A7226A
:10040E00AE071203DAD2A6C2A58E80D2A7C2A72249
:1003EC00ED7004AC078004EF2440FCEC4480FF0269
:0203FC0003FEFE
:100332008B0A8A0B890C1203ECAB0AAA0BA90C12CA
:1003420003956013050CE50C7002050B14F91203FA
:0803520095FF12040E80E22267
:1003C6007F381203FE7F0C1203FE7F061203FE7FA8
:0403D600010203FE1F
:0A042A00EF1F70011E144E70F72240
:1003AE00AD07AC06ED1DAE0470011C4E60097F7DDD
:0803BE007E0012042A80ED22EA
:10039500BB010689828A83E0225002E722BBFE0266
:0903A500E32289828A83E4932299
:00000001FF
